{
  "contractName": "Market",
  "abi": [
    {
      "anonymous": false,
      "inputs": [
        {
          "indexed": false,
          "internalType": "uint256",
          "name": "listingId",
          "type": "uint256"
        },
        {
          "indexed": false,
          "internalType": "address",
          "name": "seller",
          "type": "address"
        },
        {
          "indexed": false,
          "internalType": "address",
          "name": "token",
          "type": "address"
        },
        {
          "indexed": false,
          "internalType": "uint256",
          "name": "tokenId",
          "type": "uint256"
        },
        {
          "indexed": false,
          "internalType": "uint256",
          "name": "price",
          "type": "uint256"
        }
      ],
      "name": "tokenListed",
      "type": "event"
    },
    {
      "anonymous": false,
      "inputs": [
        {
          "indexed": false,
          "internalType": "uint256",
          "name": "listingId",
          "type": "uint256"
        },
        {
          "indexed": false,
          "internalType": "address",
          "name": "seller",
          "type": "address"
        },
        {
          "indexed": false,
          "internalType": "address",
          "name": "token",
          "type": "address"
        },
        {
          "indexed": false,
          "internalType": "uint256",
          "name": "tokenId",
          "type": "uint256"
        },
        {
          "indexed": false,
          "internalType": "uint256",
          "name": "price",
          "type": "uint256"
        }
      ],
      "name": "tokenListingCancelled",
      "type": "event"
    },
    {
      "anonymous": false,
      "inputs": [
        {
          "indexed": false,
          "internalType": "uint256",
          "name": "listingId",
          "type": "uint256"
        },
        {
          "indexed": false,
          "internalType": "address",
          "name": "seller",
          "type": "address"
        },
        {
          "indexed": false,
          "internalType": "address",
          "name": "buyer",
          "type": "address"
        },
        {
          "indexed": false,
          "internalType": "address",
          "name": "token",
          "type": "address"
        },
        {
          "indexed": false,
          "internalType": "uint256",
          "name": "tokenId",
          "type": "uint256"
        },
        {
          "indexed": false,
          "internalType": "uint256",
          "name": "price",
          "type": "uint256"
        }
      ],
      "name": "tokenSold",
      "type": "event"
    },
    {
      "inputs": [],
      "name": "getAllListings",
      "outputs": [
        {
          "components": [
            {
              "internalType": "enum Market.ListingStatus",
              "name": "status",
              "type": "uint8"
            },
            {
              "internalType": "address",
              "name": "seller",
              "type": "address"
            },
            {
              "internalType": "address",
              "name": "token",
              "type": "address"
            },
            {
              "internalType": "uint256",
              "name": "tokenId",
              "type": "uint256"
            },
            {
              "internalType": "uint256",
              "name": "price",
              "type": "uint256"
            }
          ],
          "internalType": "struct Market.Listing[]",
          "name": "",
          "type": "tuple[]"
        }
      ],
      "stateMutability": "view",
      "type": "function",
      "constant": true
    },
    {
      "inputs": [
        {
          "internalType": "uint256",
          "name": "listingId",
          "type": "uint256"
        }
      ],
      "name": "getListing",
      "outputs": [
        {
          "components": [
            {
              "internalType": "enum Market.ListingStatus",
              "name": "status",
              "type": "uint8"
            },
            {
              "internalType": "address",
              "name": "seller",
              "type": "address"
            },
            {
              "internalType": "address",
              "name": "token",
              "type": "address"
            },
            {
              "internalType": "uint256",
              "name": "tokenId",
              "type": "uint256"
            },
            {
              "internalType": "uint256",
              "name": "price",
              "type": "uint256"
            }
          ],
          "internalType": "struct Market.Listing",
          "name": "",
          "type": "tuple"
        }
      ],
      "stateMutability": "view",
      "type": "function",
      "constant": true
    },
    {
      "inputs": [
        {
          "internalType": "address",
          "name": "token",
          "type": "address"
        },
        {
          "internalType": "uint256",
          "name": "tokenId",
          "type": "uint256"
        },
        {
          "internalType": "uint256",
          "name": "price",
          "type": "uint256"
        }
      ],
      "name": "createTokenListing",
      "outputs": [],
      "stateMutability": "nonpayable",
      "type": "function"
    },
    {
      "inputs": [
        {
          "internalType": "uint256",
          "name": "listingId",
          "type": "uint256"
        }
      ],
      "name": "buyToken",
      "outputs": [],
      "stateMutability": "payable",
      "type": "function",
      "payable": true
    },
    {
      "inputs": [
        {
          "internalType": "uint256",
          "name": "listingId",
          "type": "uint256"
        }
      ],
      "name": "cancelTokenListing",
      "outputs": [],
      "stateMutability": "nonpayable",
      "type": "function"
    }
  ],
  "bytecode": "0x60806040526000805534801561001457600080fd5b5061131c806100246000396000f3fe608060405260043610610067576000357c010000000000000000000000000000000000000000000000000000000090048063107a274a1461006c5780632d296bf1146100a95780635213b126146100c5578063ae73ccec146100ee578063c140ac2214610119575b600080fd5b34801561007857600080fd5b50610093600480360381019061008e9190610bc2565b610142565b6040516100a09190610d1e565b60405180910390f35b6100c360048036038101906100be9190610bc2565b61026a565b005b3480156100d157600080fd5b506100ec60048036038101906100e79190610d65565b6105b6565b005b3480156100fa57600080fd5b506101036107f3565b6040516101109190610ecf565b60405180910390f35b34801561012557600080fd5b50610140600480360381019061013b9190610bc2565b6108aa565b005b61014a610b1a565b600160008381526020019081526020016000206040518060a00160405290816000820160009054906101000a900460ff16600281111561018d5761018c610bef565b5b600281111561019f5761019e610bef565b5b81526020016000820160019054906101000a900473ffffffffffffffffffffffffffffffffffffffff1673ffffffffffffffffffffffffffffffffffffffff1673ffffffffffffffffffffffffffffffffffffffff1681526020016001820160009054906101000a900473ffffffffffffffffffffffffffffffffffffffff1673ffffffffffffffffffffffffffffffffffffffff1673ffffffffffffffffffffffffffffffffffffffff168152602001600282015481526020016003820154815250509050919050565b60006001600083815260200190815260200160002090506000600281111561029557610294610bef565b5b8160000160009054906101000a900460ff1660028111156102b9576102b8610bef565b5b146102f9576040517f08c379a00000000000000000000000000000000000000000000000000000000081526004016102f090610f4e565b60405180910390fd5b3373ffffffffffffffffffffffffffffffffffffffff168160000160019054906101000a900473ffffffffffffffffffffffffffffffffffffffff1673ffffffffffffffffffffffffffffffffffffffff160361038b576040517f08c379a000000000000000000000000000000000000000000000000000000000815260040161038290610fba565b60405180910390fd5b34816003015411156103d2576040517f08c379a00000000000000000000000000000000000000000000000000000000081526004016103c990611026565b60405180910390fd5b60018160000160006101000a81548160ff021916908360028111156103fa576103f9610bef565b5b02179055508060010160009054906101000a900473ffffffffffffffffffffffffffffffffffffffff1673ffffffffffffffffffffffffffffffffffffffff166323b872dd303384600201546040518463ffffffff167c010000000000000000000000000000000000000000000000000000000002815260040161048093929190611064565b600060405180830381600087803b15801561049a57600080fd5b505af11580156104ae573d6000803e3d6000fd5b505050508060000160019054906101000a900473ffffffffffffffffffffffffffffffffffffffff1673ffffffffffffffffffffffffffffffffffffffff166108fc82600301549081150290604051600060405180830381858888f19350505050158015610520573d6000803e3d6000fd5b507f95f9601ba91a3abdd16e29bae3366fcdf36593e086081d173ddf08ebd2c68ccb828260000160019054906101000a900473ffffffffffffffffffffffffffffffffffffffff16338460010160009054906101000a900473ffffffffffffffffffffffffffffffffffffffff16856002015486600301546040516105aa9695949392919061109b565b60405180910390a15050565b8273ffffffffffffffffffffffffffffffffffffffff166323b872dd3330856040518463ffffffff167c010000000000000000000000000000000000000000000000000000000002815260040161060f93929190611064565b600060405180830381600087803b15801561062957600080fd5b505af115801561063d573d6000803e3d6000fd5b5050505060006040518060a001604052806000600281111561066257610661610bef565b5b81526020013373ffffffffffffffffffffffffffffffffffffffff1681526020018573ffffffffffffffffffffffffffffffffffffffff16815260200184815260200183815250905080600160008054815260200190815260200160002060008201518160000160006101000a81548160ff021916908360028111156106eb576106ea610bef565b5b021790555060208201518160000160016101000a81548173ffffffffffffffffffffffffffffffffffffffff021916908373ffffffffffffffffffffffffffffffffffffffff16021790555060408201518160010160006101000a81548173ffffffffffffffffffffffffffffffffffffffff021916908373ffffffffffffffffffffffffffffffffffffffff16021790555060608201518160020155608082015181600301559050507ff1cbb75ef46da6ebb9540bc10ab1b4fc3c0a44d8deb7b8ac49f2a269cdb72208600054338686866040516107ce9594939291906110fc565b60405180910390a16000808154809291906107e89061117e565b919050555050505050565b60606000600160005461080691906111c6565b67ffffffffffffffff81111561081f5761081e61121c565b5b60405190808252806020026020018201604052801561085857816020015b610845610b1a565b81526020019060019003908161083d5790505b50905060005b6000548110156108a25761087181610142565b8282815181106108845761088361124b565b5b6020026020010181905250808061089a9061117e565b91505061085e565b508091505090565b6000600160008381526020019081526020016000209050600060028111156108d5576108d4610bef565b5b8160000160009054906101000a900460ff1660028111156108f9576108f8610bef565b5b14610939576040517f08c379a000000000000000000000000000000000000000000000000000000000815260040161093090610f4e565b60405180910390fd5b3373ffffffffffffffffffffffffffffffffffffffff168160000160019054906101000a900473ffffffffffffffffffffffffffffffffffffffff1673ffffffffffffffffffffffffffffffffffffffff16146109cb576040517f08c379a00000000000000000000000000000000000000000000000000000000081526004016109c2906112c6565b60405180910390fd5b60028160000160006101000a81548160ff021916908360028111156109f3576109f2610bef565b5b02179055508060010160009054906101000a900473ffffffffffffffffffffffffffffffffffffffff1673ffffffffffffffffffffffffffffffffffffffff166323b872dd303384600201546040518463ffffffff167c0100000000000000000000000000000000000000000000000000000000028152600401610a7993929190611064565b600060405180830381600087803b158015610a9357600080fd5b505af1158015610aa7573d6000803e3d6000fd5b505050507f164c94822f44788f9e4713f0972206c6dd4e890c1155a9bb43c535412502dfae82338360010160009054906101000a900473ffffffffffffffffffffffffffffffffffffffff1684600201548560030154604051610b0e9594939291906110fc565b60405180910390a15050565b6040518060a0016040528060006002811115610b3957610b38610bef565b5b8152602001600073ffffffffffffffffffffffffffffffffffffffff168152602001600073ffffffffffffffffffffffffffffffffffffffff16815260200160008152602001600081525090565b600080fd5b6000819050919050565b610b9f81610b8c565b8114610baa57600080fd5b50565b600081359050610bbc81610b96565b92915050565b600060208284031215610bd857610bd7610b87565b5b6000610be684828501610bad565b91505092915050565b7f4e487b7100000000000000000000000000000000000000000000000000000000600052602160045260246000fd5b60038110610c2f57610c2e610bef565b5b50565b6000819050610c4082610c1e565b919050565b6000610c5082610c32565b9050919050565b610c6081610c45565b82525050565b600073ffffffffffffffffffffffffffffffffffffffff82169050919050565b6000610c9182610c66565b9050919050565b610ca181610c86565b82525050565b610cb081610b8c565b82525050565b60a082016000820151610ccc6000850182610c57565b506020820151610cdf6020850182610c98565b506040820151610cf26040850182610c98565b506060820151610d056060850182610ca7565b506080820151610d186080850182610ca7565b50505050565b600060a082019050610d336000830184610cb6565b92915050565b610d4281610c86565b8114610d4d57600080fd5b50565b600081359050610d5f81610d39565b92915050565b600080600060608486031215610d7e57610d7d610b87565b5b6000610d8c86828701610d50565b9350506020610d9d86828701610bad565b9250506040610dae86828701610bad565b9150509250925092565b600081519050919050565b600082825260208201905092915050565b6000819050602082019050919050565b60a082016000820151610dfa6000850182610c57565b506020820151610e0d6020850182610c98565b506040820151610e206040850182610c98565b506060820151610e336060850182610ca7565b506080820151610e466080850182610ca7565b50505050565b6000610e588383610de4565b60a08301905092915050565b6000602082019050919050565b6000610e7c82610db8565b610e868185610dc3565b9350610e9183610dd4565b8060005b83811015610ec2578151610ea98882610e4c565b9750610eb483610e64565b925050600181019050610e95565b5085935050505092915050565b60006020820190508181036000830152610ee98184610e71565b905092915050565b600082825260208201905092915050565b7f4c697374696e67206e6f74206163746976650000000000000000000000000000600082015250565b6000610f38601283610ef1565b9150610f4382610f02565b602082019050919050565b60006020820190508181036000830152610f6781610f2b565b9050919050565b7f4c69737465722063616e6e6f7420626520746865206275796572000000000000600082015250565b6000610fa4601a83610ef1565b9150610faf82610f6e565b602082019050919050565b60006020820190508181036000830152610fd381610f97565b9050919050565b7f496e73756666696369656e74207061796d656e74000000000000000000000000600082015250565b6000611010601483610ef1565b915061101b82610fda565b602082019050919050565b6000602082019050818103600083015261103f81611003565b9050919050565b61104f81610c86565b82525050565b61105e81610b8c565b82525050565b60006060820190506110796000830186611046565b6110866020830185611046565b6110936040830184611055565b949350505050565b600060c0820190506110b06000830189611055565b6110bd6020830188611046565b6110ca6040830187611046565b6110d76060830186611046565b6110e46080830185611055565b6110f160a0830184611055565b979650505050505050565b600060a0820190506111116000830188611055565b61111e6020830187611046565b61112b6040830186611046565b6111386060830185611055565b6111456080830184611055565b9695505050505050565b7f4e487b7100000000000000000000000000000000000000000000000000000000600052601160045260246000fd5b600061118982610b8c565b91507fffffffffffffffffffffffffffffffffffffffffffffffffffffffffffffffff82036111bb576111ba61114f565b5b600182019050919050565b60006111d182610b8c565b91506111dc83610b8c565b9250827fffffffffffffffffffffffffffffffffffffffffffffffffffffffffffffffff038211156112115761121061114f565b5b828201905092915050565b7f4e487b7100000000000000000000000000000000000000000000000000000000600052604160045260246000fd5b7f4e487b7100000000000000000000000000000000000000000000000000000000600052603260045260246000fd5b7f4f6e6c79206c69737465722063616e2063616e63656c206c697374696e670000600082015250565b60006112b0601e83610ef1565b91506112bb8261127a565b602082019050919050565b600060208201905081810360008301526112df816112a3565b905091905056fea264697066735822122013512457aba75702cd6f8bc555b1bef82e5cbd97b14dab6c6370e307fe035a3164736f6c634300080e0033",
  "immutableReferences": {},
  "source": "// SPDX-License-Identifier: MIT\r\npragma solidity >=0.4.22 <0.9.0;\r\n\r\nimport \"@openzeppelin/contracts/token/ERC721/IERC721.sol\";\r\n\r\ncontract Market {\r\n\r\n    enum ListingStatus{\r\n        Active,\r\n        Sold,\r\n        Cancelled\r\n    }\r\n\r\n    struct Listing {\r\n        ListingStatus status;\r\n        address seller;\r\n        address token;\r\n        uint tokenId;\r\n        uint price; // 1 ETH = 1 * 10^18\r\n    }\r\n\r\n    event tokenListed(\r\n        uint listingId,\r\n        address seller,\r\n        address token,\r\n        uint tokenId,\r\n        uint price\r\n    );\r\n\r\n    event tokenSold(\r\n        uint listingId,\r\n        address seller,\r\n        address buyer,\r\n        address token,\r\n        uint tokenId,\r\n        uint price\r\n    );\r\n\r\n    event tokenListingCancelled(\r\n        uint listingId,\r\n        address seller,\r\n        address token,\r\n        uint tokenId,\r\n        uint price\r\n    );\r\n\r\n    uint private _listingId = 0; //listing counter\r\n    mapping(uint => Listing) private _listings;\r\n\r\n    function getAllListings() public view returns (Listing[] memory) {\r\n        Listing[] memory listings = new Listing[](_listingId+1);\r\n        for(uint i=0; i < _listingId; i++){\r\n            listings[i] = getListing(i);\r\n        }\r\n        return listings;\r\n    }\r\n\r\n    function getListing(uint listingId) public view returns (Listing memory) {\r\n        return _listings[listingId];\r\n    }\r\n\r\n    function createTokenListing(address token, uint tokenId, uint price) external {\r\n        IERC721(token).transferFrom(msg.sender, address(this), tokenId);\r\n\r\n        Listing memory listing = Listing(ListingStatus.Active, msg.sender, token, tokenId, price);\r\n\r\n        _listings[_listingId] = listing;\r\n\r\n        emit tokenListed(_listingId, msg.sender, token, tokenId, price);\r\n        _listingId++;\r\n    }\r\n\r\n    function buyToken(uint listingId) external payable { \r\n        Listing storage listing = _listings[listingId];\r\n\r\n        require(listing.status == ListingStatus.Active, \"Listing not active\");\r\n        require(listing.seller != msg.sender, \"Lister cannot be the buyer\");\r\n        require(listing.price <= msg.value, \"Insufficient payment\");\r\n\r\n        listing.status = ListingStatus.Sold;\r\n\r\n        IERC721(listing.token).transferFrom(address(this), msg.sender, listing.tokenId);\r\n        payable(listing.seller).transfer(listing.price);\r\n\r\n        emit tokenSold(listingId, listing.seller , msg.sender, listing.token, listing.tokenId, listing.price);\r\n    }\r\n\r\n    function cancelTokenListing(uint listingId) public {\r\n        Listing storage listing = _listings[listingId];\r\n\r\n        require(listing.status == ListingStatus.Active, \"Listing not active\");\r\n        require(listing.seller == msg.sender, \"Only lister can cancel listing\");\r\n\r\n        listing.status = ListingStatus.Cancelled;\r\n        IERC721(listing.token).transferFrom(address(this), msg.sender, listing.tokenId);\r\n\r\n        emit tokenListingCancelled(listingId, msg.sender, listing.token, listing.tokenId, listing.price);\r\n    }\r\n}",
  "sourcePath": "C:\\Users\\Mantas\\Desktop\\8 semestras\\Bakalauras\\Zaidimas\\SmartContracts\\contracts\\Market.sol",
  "compiler": {
    "name": "solc",
    "version": "0.8.14+commit.80d49f37.Emscripten.clang"
  },
  "schemaVersion": "3.4.7",
  "updatedAt": "2022-05-25T12:51:23.008Z",
  "networkType": "ethereum",
  "devdoc": {
    "kind": "dev",
    "methods": {},
    "version": 1
  },
  "userdoc": {
    "kind": "user",
    "methods": {},
    "version": 1
  }
}