{
  "contractName": "Token",
  "abi": [
    {
      "inputs": [],
      "stateMutability": "nonpayable",
      "type": "constructor"
    },
    {
      "anonymous": false,
      "inputs": [
        {
          "indexed": true,
          "internalType": "address",
          "name": "owner",
          "type": "address"
        },
        {
          "indexed": true,
          "internalType": "address",
          "name": "approved",
          "type": "address"
        },
        {
          "indexed": true,
          "internalType": "uint256",
          "name": "tokenId",
          "type": "uint256"
        }
      ],
      "name": "Approval",
      "type": "event"
    },
    {
      "anonymous": false,
      "inputs": [
        {
          "indexed": true,
          "internalType": "address",
          "name": "owner",
          "type": "address"
        },
        {
          "indexed": true,
          "internalType": "address",
          "name": "operator",
          "type": "address"
        },
        {
          "indexed": false,
          "internalType": "bool",
          "name": "approved",
          "type": "bool"
        }
      ],
      "name": "ApprovalForAll",
      "type": "event"
    },
    {
      "anonymous": false,
      "inputs": [
        {
          "indexed": true,
          "internalType": "address",
          "name": "from",
          "type": "address"
        },
        {
          "indexed": true,
          "internalType": "address",
          "name": "to",
          "type": "address"
        },
        {
          "indexed": true,
          "internalType": "uint256",
          "name": "tokenId",
          "type": "uint256"
        }
      ],
      "name": "Transfer",
      "type": "event"
    },
    {
      "anonymous": false,
      "inputs": [
        {
          "indexed": false,
          "internalType": "uint256",
          "name": "tokenId",
          "type": "uint256"
        },
        {
          "indexed": false,
          "internalType": "address",
          "name": "owner",
          "type": "address"
        },
        {
          "indexed": false,
          "internalType": "string",
          "name": "name",
          "type": "string"
        },
        {
          "indexed": false,
          "internalType": "string",
          "name": "uri",
          "type": "string"
        }
      ],
      "name": "tokenCreated",
      "type": "event"
    },
    {
      "inputs": [
        {
          "internalType": "address",
          "name": "to",
          "type": "address"
        },
        {
          "internalType": "uint256",
          "name": "tokenId",
          "type": "uint256"
        }
      ],
      "name": "approve",
      "outputs": [],
      "stateMutability": "nonpayable",
      "type": "function"
    },
    {
      "inputs": [
        {
          "internalType": "uint256",
          "name": "",
          "type": "uint256"
        }
      ],
      "name": "attributes",
      "outputs": [
        {
          "internalType": "string",
          "name": "name",
          "type": "string"
        },
        {
          "internalType": "string",
          "name": "uri",
          "type": "string"
        }
      ],
      "stateMutability": "view",
      "type": "function",
      "constant": true
    },
    {
      "inputs": [
        {
          "internalType": "address",
          "name": "owner",
          "type": "address"
        }
      ],
      "name": "balanceOf",
      "outputs": [
        {
          "internalType": "uint256",
          "name": "",
          "type": "uint256"
        }
      ],
      "stateMutability": "view",
      "type": "function",
      "constant": true
    },
    {
      "inputs": [
        {
          "internalType": "uint256",
          "name": "tokenId",
          "type": "uint256"
        }
      ],
      "name": "getApproved",
      "outputs": [
        {
          "internalType": "address",
          "name": "",
          "type": "address"
        }
      ],
      "stateMutability": "view",
      "type": "function",
      "constant": true
    },
    {
      "inputs": [
        {
          "internalType": "address",
          "name": "owner",
          "type": "address"
        },
        {
          "internalType": "address",
          "name": "operator",
          "type": "address"
        }
      ],
      "name": "isApprovedForAll",
      "outputs": [
        {
          "internalType": "bool",
          "name": "",
          "type": "bool"
        }
      ],
      "stateMutability": "view",
      "type": "function",
      "constant": true
    },
    {
      "inputs": [],
      "name": "name",
      "outputs": [
        {
          "internalType": "string",
          "name": "",
          "type": "string"
        }
      ],
      "stateMutability": "view",
      "type": "function",
      "constant": true
    },
    {
      "inputs": [
        {
          "internalType": "uint256",
          "name": "tokenId",
          "type": "uint256"
        }
      ],
      "name": "ownerOf",
      "outputs": [
        {
          "internalType": "address",
          "name": "",
          "type": "address"
        }
      ],
      "stateMutability": "view",
      "type": "function",
      "constant": true
    },
    {
      "inputs": [
        {
          "internalType": "address",
          "name": "from",
          "type": "address"
        },
        {
          "internalType": "address",
          "name": "to",
          "type": "address"
        },
        {
          "internalType": "uint256",
          "name": "tokenId",
          "type": "uint256"
        }
      ],
      "name": "safeTransferFrom",
      "outputs": [],
      "stateMutability": "nonpayable",
      "type": "function"
    },
    {
      "inputs": [
        {
          "internalType": "address",
          "name": "from",
          "type": "address"
        },
        {
          "internalType": "address",
          "name": "to",
          "type": "address"
        },
        {
          "internalType": "uint256",
          "name": "tokenId",
          "type": "uint256"
        },
        {
          "internalType": "bytes",
          "name": "_data",
          "type": "bytes"
        }
      ],
      "name": "safeTransferFrom",
      "outputs": [],
      "stateMutability": "nonpayable",
      "type": "function"
    },
    {
      "inputs": [
        {
          "internalType": "address",
          "name": "operator",
          "type": "address"
        },
        {
          "internalType": "bool",
          "name": "approved",
          "type": "bool"
        }
      ],
      "name": "setApprovalForAll",
      "outputs": [],
      "stateMutability": "nonpayable",
      "type": "function"
    },
    {
      "inputs": [
        {
          "internalType": "bytes4",
          "name": "interfaceId",
          "type": "bytes4"
        }
      ],
      "name": "supportsInterface",
      "outputs": [
        {
          "internalType": "bool",
          "name": "",
          "type": "bool"
        }
      ],
      "stateMutability": "view",
      "type": "function",
      "constant": true
    },
    {
      "inputs": [],
      "name": "symbol",
      "outputs": [
        {
          "internalType": "string",
          "name": "",
          "type": "string"
        }
      ],
      "stateMutability": "view",
      "type": "function",
      "constant": true
    },
    {
      "inputs": [
        {
          "internalType": "uint256",
          "name": "tokenId",
          "type": "uint256"
        }
      ],
      "name": "tokenURI",
      "outputs": [
        {
          "internalType": "string",
          "name": "",
          "type": "string"
        }
      ],
      "stateMutability": "view",
      "type": "function",
      "constant": true
    },
    {
      "inputs": [
        {
          "internalType": "address",
          "name": "from",
          "type": "address"
        },
        {
          "internalType": "address",
          "name": "to",
          "type": "address"
        },
        {
          "internalType": "uint256",
          "name": "tokenId",
          "type": "uint256"
        }
      ],
      "name": "transferFrom",
      "outputs": [],
      "stateMutability": "nonpayable",
      "type": "function"
    },
    {
      "inputs": [
        {
          "internalType": "string",
          "name": "_name",
          "type": "string"
        },
        {
          "internalType": "string",
          "name": "_uri",
          "type": "string"
        }
      ],
      "name": "createToken",
      "outputs": [
        {
          "internalType": "uint256",
          "name": "",
          "type": "uint256"
        }
      ],
      "stateMutability": "nonpayable",
      "type": "function"
    },
    {
      "inputs": [
        {
          "internalType": "uint256",
          "name": "tokenId",
          "type": "uint256"
        }
      ],
      "name": "getTokenAttributes",
      "outputs": [
        {
          "internalType": "string",
          "name": "name",
          "type": "string"
        },
        {
          "internalType": "string",
          "name": "uri",
          "type": "string"
        }
      ],
      "stateMutability": "view",
      "type": "function",
      "constant": true
    }
  ],
  "bytecode": "0x608060405260006007553480156200001657600080fd5b506040518060400160405280600581526020017f746f6b656e0000000000000000000000000000000000000000000000000000008152506040518060400160405280600581526020017f544f4b454e00000000000000000000000000000000000000000000000000000081525081600090805190602001906200009b929190620000bd565b508060019080519060200190620000b4929190620000bd565b505050620001d1565b828054620000cb906200019c565b90600052602060002090601f016020900481019282620000ef57600085556200013b565b82601f106200010a57805160ff19168380011785556200013b565b828001600101855582156200013b579182015b828111156200013a5782518255916020019190600101906200011d565b5b5090506200014a91906200014e565b5090565b5b80821115620001695760008160009055506001016200014f565b5090565b7f4e487b7100000000000000000000000000000000000000000000000000000000600052602260045260246000fd5b60006002820490506001821680620001b557607f821691505b602082108103620001cb57620001ca6200016d565b5b50919050565b612d6580620001e16000396000f3fe608060405234801561001057600080fd5b506004361061011d576000357c0100000000000000000000000000000000000000000000000000000000900480636352211e116100b4578063b88d4fde11610083578063b88d4fde146102ef578063c87b56dd1461030b578063d05dcc6a1461033b578063e985e9c51461036c5761011d565b80636352211e1461025557806370a082311461028557806395d89b41146102b5578063a22cb465146102d35761011d565b80631f4f5a23116100f05780631f4f5a23146101bc57806323b872dd146101ed5780632f2f2d561461020957806342842e0e146102395761011d565b806301ffc9a71461012257806306fdde0314610152578063081812fc14610170578063095ea7b3146101a0575b600080fd5b61013c60048036038101906101379190611b47565b61039c565b6040516101499190611b8f565b60405180910390f35b61015a61047e565b6040516101679190611c43565b60405180910390f35b61018a60048036038101906101859190611c9b565b610510565b6040516101979190611d09565b60405180910390f35b6101ba60048036038101906101b59190611d50565b610595565b005b6101d660048036038101906101d19190611c9b565b6106ac565b6040516101e4929190611d90565b60405180910390f35b61020760048036038101906102029190611dc7565b6107f6565b005b610223600480360381019061021e9190611f4f565b610856565b6040516102309190611fd6565b60405180910390f35b610253600480360381019061024e9190611dc7565b610939565b005b61026f600480360381019061026a9190611c9b565b610959565b60405161027c9190611d09565b60405180910390f35b61029f600480360381019061029a9190611ff1565b610a0a565b6040516102ac9190611fd6565b60405180910390f35b6102bd610ac1565b6040516102ca9190611c43565b60405180910390f35b6102ed60048036038101906102e8919061204a565b610b53565b005b6103096004803603810190610304919061212b565b610b69565b005b61032560048036038101906103209190611c9b565b610bcb565b6040516103329190611c43565b60405180910390f35b61035560048036038101906103509190611c9b565b610c72565b604051610363929190611d90565b60405180910390f35b610386600480360381019061038191906121ae565b610da6565b6040516103939190611b8f565b60405180910390f35b60007f80ac58cd000000000000000000000000000000000000000000000000000000007bffffffffffffffffffffffffffffffffffffffffffffffffffffffff1916827bffffffffffffffffffffffffffffffffffffffffffffffffffffffff1916148061046757507f5b5e139f000000000000000000000000000000000000000000000000000000007bffffffffffffffffffffffffffffffffffffffffffffffffffffffff1916827bffffffffffffffffffffffffffffffffffffffffffffffffffffffff1916145b80610477575061047682610e3a565b5b9050919050565b60606000805461048d9061221d565b80601f01602080910402602001604051908101604052809291908181526020018280546104b99061221d565b80156105065780601f106104db57610100808354040283529160200191610506565b820191906000526020600020905b8154815290600101906020018083116104e957829003601f168201915b5050505050905090565b600061051b82610ea4565b61055a576040517f08c379a0000000000000000000000000000000000000000000000000000000008152600401610551906122c0565b60405180910390fd5b6004600083815260200190815260200160002060009054906101000a900473ffffffffffffffffffffffffffffffffffffffff169050919050565b60006105a082610959565b90508073ffffffffffffffffffffffffffffffffffffffff168373ffffffffffffffffffffffffffffffffffffffff1603610610576040517f08c379a000000000000000000000000000000000000000000000000000000000815260040161060790612352565b60405180910390fd5b8073ffffffffffffffffffffffffffffffffffffffff1661062f610f10565b73ffffffffffffffffffffffffffffffffffffffff16148061065e575061065d81610658610f10565b610da6565b5b61069d576040517f08c379a0000000000000000000000000000000000000000000000000000000008152600401610694906123e4565b60405180910390fd5b6106a78383610f18565b505050565b6060806006600084815260200190815260200160002060000180546106d09061221d565b80601f01602080910402602001604051908101604052809291908181526020018280546106fc9061221d565b80156107495780601f1061071e57610100808354040283529160200191610749565b820191906000526020600020905b81548152906001019060200180831161072c57829003601f168201915b505050505091506006600084815260200190815260200160002060010180546107719061221d565b80601f016020809104026020016040519081016040528092919081815260200182805461079d9061221d565b80156107ea5780601f106107bf576101008083540402835291602001916107ea565b820191906000526020600020905b8154815290600101906020018083116107cd57829003601f168201915b50505050509050915091565b610807610801610f10565b82610fd1565b610846576040517f08c379a000000000000000000000000000000000000000000000000000000000815260040161083d90612476565b60405180910390fd5b6108518383836110af565b505050565b600061086433600754611315565b60405180604001604052808481526020018381525060066000600754815260200190815260200160002060008201518160000190805190602001906108aa929190611a38565b5060208201518160010190805190602001906108c7929190611a38565b509050507fd3d1d15f45ec396b77251b3414c71a6de19b3cd519ddd6d1416caa798216b8486007543385856040516109029493929190612496565b60405180910390a16007600081548092919061091d90612518565b919050555060016007546109319190612560565b905092915050565b61095483838360405180602001604052806000815250610b69565b505050565b6000806002600084815260200190815260200160002060009054906101000a900473ffffffffffffffffffffffffffffffffffffffff169050600073ffffffffffffffffffffffffffffffffffffffff168173ffffffffffffffffffffffffffffffffffffffff1603610a01576040517f08c379a00000000000000000000000000000000000000000000000000000000081526004016109f890612606565b60405180910390fd5b80915050919050565b60008073ffffffffffffffffffffffffffffffffffffffff168273ffffffffffffffffffffffffffffffffffffffff1603610a7a576040517f08c379a0000000000000000000000000000000000000000000000000000000008152600401610a7190612698565b60405180910390fd5b600360008373ffffffffffffffffffffffffffffffffffffffff1673ffffffffffffffffffffffffffffffffffffffff168152602001908152602001600020549050919050565b606060018054610ad09061221d565b80601f0160208091040260200160405190810160405280929190818152602001828054610afc9061221d565b8015610b495780601f10610b1e57610100808354040283529160200191610b49565b820191906000526020600020905b815481529060010190602001808311610b2c57829003601f168201915b5050505050905090565b610b65610b5e610f10565b83836114ee565b5050565b610b7a610b74610f10565b83610fd1565b610bb9576040517f08c379a0000000000000000000000000000000000000000000000000000000008152600401610bb090612476565b60405180910390fd5b610bc58484848461165a565b50505050565b6060610bd682610ea4565b610c15576040517f08c379a0000000000000000000000000000000000000000000000000000000008152600401610c0c9061272a565b60405180910390fd5b6000610c1f6116b6565b90506000815111610c3f5760405180602001604052806000815250610c6a565b80610c49846116cd565b604051602001610c5a929190612786565b6040516020818303038152906040525b915050919050565b6006602052806000526040600020600091509050806000018054610c959061221d565b80601f0160208091040260200160405190810160405280929190818152602001828054610cc19061221d565b8015610d0e5780601f10610ce357610100808354040283529160200191610d0e565b820191906000526020600020905b815481529060010190602001808311610cf157829003601f168201915b505050505090806001018054610d239061221d565b80601f0160208091040260200160405190810160405280929190818152602001828054610d4f9061221d565b8015610d9c5780601f10610d7157610100808354040283529160200191610d9c565b820191906000526020600020905b815481529060010190602001808311610d7f57829003601f168201915b5050505050905082565b6000600560008473ffffffffffffffffffffffffffffffffffffffff1673ffffffffffffffffffffffffffffffffffffffff16815260200190815260200160002060008373ffffffffffffffffffffffffffffffffffffffff1673ffffffffffffffffffffffffffffffffffffffff16815260200190815260200160002060009054906101000a900460ff16905092915050565b60007f01ffc9a7000000000000000000000000000000000000000000000000000000007bffffffffffffffffffffffffffffffffffffffffffffffffffffffff1916827bffffffffffffffffffffffffffffffffffffffffffffffffffffffff1916149050919050565b60008073ffffffffffffffffffffffffffffffffffffffff166002600084815260200190815260200160002060009054906101000a900473ffffffffffffffffffffffffffffffffffffffff1673ffffffffffffffffffffffffffffffffffffffff1614159050919050565b600033905090565b816004600083815260200190815260200160002060006101000a81548173ffffffffffffffffffffffffffffffffffffffff021916908373ffffffffffffffffffffffffffffffffffffffff160217905550808273ffffffffffffffffffffffffffffffffffffffff16610f8b83610959565b73ffffffffffffffffffffffffffffffffffffffff167f8c5be1e5ebec7d5bd14f71427d1e84f3dd0314c0f7b2291e5b200ac8c7c3b92560405160405180910390a45050565b6000610fdc82610ea4565b61101b576040517f08c379a00000000000000000000000000000000000000000000000000000000081526004016110129061281c565b60405180910390fd5b600061102683610959565b90508073ffffffffffffffffffffffffffffffffffffffff168473ffffffffffffffffffffffffffffffffffffffff16148061106857506110678185610da6565b5b806110a657508373ffffffffffffffffffffffffffffffffffffffff1661108e84610510565b73ffffffffffffffffffffffffffffffffffffffff16145b91505092915050565b8273ffffffffffffffffffffffffffffffffffffffff166110cf82610959565b73ffffffffffffffffffffffffffffffffffffffff1614611125576040517f08c379a000000000000000000000000000000000000000000000000000000000815260040161111c906128ae565b60405180910390fd5b600073ffffffffffffffffffffffffffffffffffffffff168273ffffffffffffffffffffffffffffffffffffffff1603611194576040517f08c379a000000000000000000000000000000000000000000000000000000000815260040161118b90612940565b60405180910390fd5b61119f83838361184c565b6111aa600082610f18565b6001600360008573ffffffffffffffffffffffffffffffffffffffff1673ffffffffffffffffffffffffffffffffffffffff16815260200190815260200160002060008282546111fa9190612560565b925050819055506001600360008473ffffffffffffffffffffffffffffffffffffffff1673ffffffffffffffffffffffffffffffffffffffff16815260200190815260200160002060008282546112519190612960565b92505081905550816002600083815260200190815260200160002060006101000a81548173ffffffffffffffffffffffffffffffffffffffff021916908373ffffffffffffffffffffffffffffffffffffffff160217905550808273ffffffffffffffffffffffffffffffffffffffff168473ffffffffffffffffffffffffffffffffffffffff167fddf252ad1be2c89b69c2b068fc378daa952ba7f163c4a11628f55a4df523b3ef60405160405180910390a4611310838383611851565b505050565b600073ffffffffffffffffffffffffffffffffffffffff168273ffffffffffffffffffffffffffffffffffffffff1603611384576040517f08c379a000000000000000000000000000000000000000000000000000000000815260040161137b90612a02565b60405180910390fd5b61138d81610ea4565b156113cd576040517f08c379a00000000000000000000000000000000000000000000000000000000081526004016113c490612a6e565b60405180910390fd5b6113d96000838361184c565b6001600360008473ffffffffffffffffffffffffffffffffffffffff1673ffffffffffffffffffffffffffffffffffffffff16815260200190815260200160002060008282546114299190612960565b92505081905550816002600083815260200190815260200160002060006101000a81548173ffffffffffffffffffffffffffffffffffffffff021916908373ffffffffffffffffffffffffffffffffffffffff160217905550808273ffffffffffffffffffffffffffffffffffffffff16600073ffffffffffffffffffffffffffffffffffffffff167fddf252ad1be2c89b69c2b068fc378daa952ba7f163c4a11628f55a4df523b3ef60405160405180910390a46114ea60008383611851565b5050565b8173ffffffffffffffffffffffffffffffffffffffff168373ffffffffffffffffffffffffffffffffffffffff160361155c576040517f08c379a000000000000000000000000000000000000000000000000000000000815260040161155390612ada565b60405180910390fd5b80600560008573ffffffffffffffffffffffffffffffffffffffff1673ffffffffffffffffffffffffffffffffffffffff16815260200190815260200160002060008473ffffffffffffffffffffffffffffffffffffffff1673ffffffffffffffffffffffffffffffffffffffff16815260200190815260200160002060006101000a81548160ff0219169083151502179055508173ffffffffffffffffffffffffffffffffffffffff168373ffffffffffffffffffffffffffffffffffffffff167f17307eab39ab6107e8899845ad3d59bd9653f200f220920489ca2b5937696c318360405161164d9190611b8f565b60405180910390a3505050565b6116658484846110af565b61167184848484611856565b6116b0576040517f08c379a00000000000000000000000000000000000000000000000000000000081526004016116a790612b6c565b60405180910390fd5b50505050565b606060405180602001604052806000815250905090565b606060008203611714576040518060400160405280600181526020017f30000000000000000000000000000000000000000000000000000000000000008152509050611847565b600082905060005b6000821461174657808061172f90612518565b915050600a8261173f9190612bbb565b915061171c565b60008167ffffffffffffffff81111561176257611761611e24565b5b6040519080825280601f01601f1916602001820160405280156117945781602001600182028036833780820191505090505b5090505b60008514611840576001826117ad9190612560565b9150600a856117bc9190612bec565b60306117c89190612960565b7f0100000000000000000000000000000000000000000000000000000000000000028183815181106117fd576117fc612c1d565b5b60200101907effffffffffffffffffffffffffffffffffffffffffffffffffffffffffffff1916908160001a905350600a856118399190612bbb565b9450611798565b8093505050505b919050565b505050565b505050565b60006118778473ffffffffffffffffffffffffffffffffffffffff16611a15565b15611a08578373ffffffffffffffffffffffffffffffffffffffff1663150b7a026118a0610f10565b8786866040518563ffffffff167c01000000000000000000000000000000000000000000000000000000000281526004016118de9493929190612ca1565b6020604051808303816000875af192505050801561191a57506040513d601f19601f820116820180604052508101906119179190612d02565b60015b61199c573d806000811461194a576040519150601f19603f3d011682016040523d82523d6000602084013e61194f565b606091505b506000815103611994576040517f08c379a000000000000000000000000000000000000000000000000000000000815260040161198b90612b6c565b60405180910390fd5b805181602001fd5b63150b7a027c0100000000000000000000000000000000000000000000000000000000027bffffffffffffffffffffffffffffffffffffffffffffffffffffffff1916817bffffffffffffffffffffffffffffffffffffffffffffffffffffffff191614915050611a0d565b600190505b949350505050565b6000808273ffffffffffffffffffffffffffffffffffffffff163b119050919050565b828054611a449061221d565b90600052602060002090601f016020900481019282611a665760008555611aad565b82601f10611a7f57805160ff1916838001178555611aad565b82800160010185558215611aad579182015b82811115611aac578251825591602001919060010190611a91565b5b509050611aba9190611abe565b5090565b5b80821115611ad7576000816000905550600101611abf565b5090565b6000604051905090565b600080fd5b600080fd5b60007fffffffff0000000000000000000000000000000000000000000000000000000082169050919050565b611b2481611aef565b8114611b2f57600080fd5b50565b600081359050611b4181611b1b565b92915050565b600060208284031215611b5d57611b5c611ae5565b5b6000611b6b84828501611b32565b91505092915050565b60008115159050919050565b611b8981611b74565b82525050565b6000602082019050611ba46000830184611b80565b92915050565b600081519050919050565b600082825260208201905092915050565b60005b83811015611be4578082015181840152602081019050611bc9565b83811115611bf3576000848401525b50505050565b6000601f19601f8301169050919050565b6000611c1582611baa565b611c1f8185611bb5565b9350611c2f818560208601611bc6565b611c3881611bf9565b840191505092915050565b60006020820190508181036000830152611c5d8184611c0a565b905092915050565b6000819050919050565b611c7881611c65565b8114611c8357600080fd5b50565b600081359050611c9581611c6f565b92915050565b600060208284031215611cb157611cb0611ae5565b5b6000611cbf84828501611c86565b91505092915050565b600073ffffffffffffffffffffffffffffffffffffffff82169050919050565b6000611cf382611cc8565b9050919050565b611d0381611ce8565b82525050565b6000602082019050611d1e6000830184611cfa565b92915050565b611d2d81611ce8565b8114611d3857600080fd5b50565b600081359050611d4a81611d24565b92915050565b60008060408385031215611d6757611d66611ae5565b5b6000611d7585828601611d3b565b9250506020611d8685828601611c86565b9150509250929050565b60006040820190508181036000830152611daa8185611c0a565b90508181036020830152611dbe8184611c0a565b90509392505050565b600080600060608486031215611de057611ddf611ae5565b5b6000611dee86828701611d3b565b9350506020611dff86828701611d3b565b9250506040611e1086828701611c86565b9150509250925092565b600080fd5b600080fd5b7f4e487b7100000000000000000000000000000000000000000000000000000000600052604160045260246000fd5b611e5c82611bf9565b810181811067ffffffffffffffff82111715611e7b57611e7a611e24565b5b80604052505050565b6000611e8e611adb565b9050611e9a8282611e53565b919050565b600067ffffffffffffffff821115611eba57611eb9611e24565b5b611ec382611bf9565b9050602081019050919050565b82818337600083830152505050565b6000611ef2611eed84611e9f565b611e84565b905082815260208101848484011115611f0e57611f0d611e1f565b5b611f19848285611ed0565b509392505050565b600082601f830112611f3657611f35611e1a565b5b8135611f46848260208601611edf565b91505092915050565b60008060408385031215611f6657611f65611ae5565b5b600083013567ffffffffffffffff811115611f8457611f83611aea565b5b611f9085828601611f21565b925050602083013567ffffffffffffffff811115611fb157611fb0611aea565b5b611fbd85828601611f21565b9150509250929050565b611fd081611c65565b82525050565b6000602082019050611feb6000830184611fc7565b92915050565b60006020828403121561200757612006611ae5565b5b600061201584828501611d3b565b91505092915050565b61202781611b74565b811461203257600080fd5b50565b6000813590506120448161201e565b92915050565b6000806040838503121561206157612060611ae5565b5b600061206f85828601611d3b565b925050602061208085828601612035565b9150509250929050565b600067ffffffffffffffff8211156120a5576120a4611e24565b5b6120ae82611bf9565b9050602081019050919050565b60006120ce6120c98461208a565b611e84565b9050828152602081018484840111156120ea576120e9611e1f565b5b6120f5848285611ed0565b509392505050565b600082601f83011261211257612111611e1a565b5b81356121228482602086016120bb565b91505092915050565b6000806000806080858703121561214557612144611ae5565b5b600061215387828801611d3b565b945050602061216487828801611d3b565b935050604061217587828801611c86565b925050606085013567ffffffffffffffff81111561219657612195611aea565b5b6121a2878288016120fd565b91505092959194509250565b600080604083850312156121c5576121c4611ae5565b5b60006121d385828601611d3b565b92505060206121e485828601611d3b565b9150509250929050565b7f4e487b7100000000000000000000000000000000000000000000000000000000600052602260045260246000fd5b6000600282049050600182168061223557607f821691505b602082108103612248576122476121ee565b5b50919050565b7f4552433732313a20617070726f76656420717565727920666f72206e6f6e657860008201527f697374656e7420746f6b656e0000000000000000000000000000000000000000602082015250565b60006122aa602c83611bb5565b91506122b58261224e565b604082019050919050565b600060208201905081810360008301526122d98161229d565b9050919050565b7f4552433732313a20617070726f76616c20746f2063757272656e74206f776e6560008201527f7200000000000000000000000000000000000000000000000000000000000000602082015250565b600061233c602183611bb5565b9150612347826122e0565b604082019050919050565b6000602082019050818103600083015261236b8161232f565b9050919050565b7f4552433732313a20617070726f76652063616c6c6572206973206e6f74206f7760008201527f6e6572206e6f7220617070726f76656420666f7220616c6c0000000000000000602082015250565b60006123ce603883611bb5565b91506123d982612372565b604082019050919050565b600060208201905081810360008301526123fd816123c1565b9050919050565b7f4552433732313a207472616e736665722063616c6c6572206973206e6f74206f60008201527f776e6572206e6f7220617070726f766564000000000000000000000000000000602082015250565b6000612460603183611bb5565b915061246b82612404565b604082019050919050565b6000602082019050818103600083015261248f81612453565b9050919050565b60006080820190506124ab6000830187611fc7565b6124b86020830186611cfa565b81810360408301526124ca8185611c0a565b905081810360608301526124de8184611c0a565b905095945050505050565b7f4e487b7100000000000000000000000000000000000000000000000000000000600052601160045260246000fd5b600061252382611c65565b91507fffffffffffffffffffffffffffffffffffffffffffffffffffffffffffffffff8203612555576125546124e9565b5b600182019050919050565b600061256b82611c65565b915061257683611c65565b925082821015612589576125886124e9565b5b828203905092915050565b7f4552433732313a206f776e657220717565727920666f72206e6f6e657869737460008201527f656e7420746f6b656e0000000000000000000000000000000000000000000000602082015250565b60006125f0602983611bb5565b91506125fb82612594565b604082019050919050565b6000602082019050818103600083015261261f816125e3565b9050919050565b7f4552433732313a2062616c616e636520717565727920666f7220746865207a6560008201527f726f206164647265737300000000000000000000000000000000000000000000602082015250565b6000612682602a83611bb5565b915061268d82612626565b604082019050919050565b600060208201905081810360008301526126b181612675565b9050919050565b7f4552433732314d657461646174613a2055524920717565727920666f72206e6f60008201527f6e6578697374656e7420746f6b656e0000000000000000000000000000000000602082015250565b6000612714602f83611bb5565b915061271f826126b8565b604082019050919050565b6000602082019050818103600083015261274381612707565b9050919050565b600081905092915050565b600061276082611baa565b61276a818561274a565b935061277a818560208601611bc6565b80840191505092915050565b60006127928285612755565b915061279e8284612755565b91508190509392505050565b7f4552433732313a206f70657261746f7220717565727920666f72206e6f6e657860008201527f697374656e7420746f6b656e0000000000000000000000000000000000000000602082015250565b6000612806602c83611bb5565b9150612811826127aa565b604082019050919050565b60006020820190508181036000830152612835816127f9565b9050919050565b7f4552433732313a207472616e736665722066726f6d20696e636f72726563742060008201527f6f776e6572000000000000000000000000000000000000000000000000000000602082015250565b6000612898602583611bb5565b91506128a38261283c565b604082019050919050565b600060208201905081810360008301526128c78161288b565b9050919050565b7f4552433732313a207472616e7366657220746f20746865207a65726f2061646460008201527f7265737300000000000000000000000000000000000000000000000000000000602082015250565b600061292a602483611bb5565b9150612935826128ce565b604082019050919050565b600060208201905081810360008301526129598161291d565b9050919050565b600061296b82611c65565b915061297683611c65565b9250827fffffffffffffffffffffffffffffffffffffffffffffffffffffffffffffffff038211156129ab576129aa6124e9565b5b828201905092915050565b7f4552433732313a206d696e7420746f20746865207a65726f2061646472657373600082015250565b60006129ec602083611bb5565b91506129f7826129b6565b602082019050919050565b60006020820190508181036000830152612a1b816129df565b9050919050565b7f4552433732313a20746f6b656e20616c7265616479206d696e74656400000000600082015250565b6000612a58601c83611bb5565b9150612a6382612a22565b602082019050919050565b60006020820190508181036000830152612a8781612a4b565b9050919050565b7f4552433732313a20617070726f766520746f2063616c6c657200000000000000600082015250565b6000612ac4601983611bb5565b9150612acf82612a8e565b602082019050919050565b60006020820190508181036000830152612af381612ab7565b9050919050565b7f4552433732313a207472616e7366657220746f206e6f6e20455243373231526560008201527f63656976657220696d706c656d656e7465720000000000000000000000000000602082015250565b6000612b56603283611bb5565b9150612b6182612afa565b604082019050919050565b60006020820190508181036000830152612b8581612b49565b9050919050565b7f4e487b7100000000000000000000000000000000000000000000000000000000600052601260045260246000fd5b6000612bc682611c65565b9150612bd183611c65565b925082612be157612be0612b8c565b5b828204905092915050565b6000612bf782611c65565b9150612c0283611c65565b925082612c1257612c11612b8c565b5b828206905092915050565b7f4e487b7100000000000000000000000000000000000000000000000000000000600052603260045260246000fd5b600081519050919050565b600082825260208201905092915050565b6000612c7382612c4c565b612c7d8185612c57565b9350612c8d818560208601611bc6565b612c9681611bf9565b840191505092915050565b6000608082019050612cb66000830187611cfa565b612cc36020830186611cfa565b612cd06040830185611fc7565b8181036060830152612ce28184612c68565b905095945050505050565b600081519050612cfc81611b1b565b92915050565b600060208284031215612d1857612d17611ae5565b5b6000612d2684828501612ced565b9150509291505056fea26469706673582212206ec61563cb66c177100f4a4b7c3ddf3ba65ebf3052a9f33c4ac19a1487e7af8b64736f6c634300080e0033",
  "immutableReferences": {},
  "source": "// SPDX-License-Identifier: MIT\r\npragma solidity ^0.8.0;\r\n\r\nimport \"@openzeppelin/contracts/token/ERC721/ERC721.sol\";\r\n\r\ncontract Token is ERC721 {\r\n    constructor() ERC721(\"token\", \"TOKEN\") {}\r\n    mapping(uint256 => Attr) public attributes;\r\n\r\n    struct Attr {\r\n        string name;\r\n        string uri;\r\n    }\r\n\r\n    uint private _tokenId = 0;\r\n\r\n    event tokenCreated(\r\n        uint tokenId,\r\n        address owner,\r\n        string name,\r\n        string uri\r\n    );\r\n\r\n    function createToken(string memory _name, string memory _uri) external returns (uint) {\r\n        _mint(msg.sender, _tokenId);\r\n        attributes[_tokenId] = Attr(_name, _uri);\r\n\r\n        emit tokenCreated(_tokenId, msg.sender, _name, _uri);\r\n        _tokenId++;\r\n        return _tokenId-1;\r\n    }\r\n\r\n    function getTokenAttributes(uint256 tokenId) public view returns (string memory name, string memory uri) {\r\n        name = attributes[tokenId].name;\r\n        uri = attributes[tokenId].uri;\r\n    }    \r\n\r\n}",
  "sourcePath": "C:\\Users\\Mantas\\Desktop\\8 semestras\\Bakalauras\\Zaidimas\\SmartContracts\\contracts\\Token.sol",
  "compiler": {
    "name": "solc",
    "version": "0.8.14+commit.80d49f37.Emscripten.clang"
  },
  "schemaVersion": "3.4.7",
  "updatedAt": "2022-05-25T12:51:22.999Z",
  "networkType": "ethereum",
  "devdoc": {
    "kind": "dev",
    "methods": {
      "approve(address,uint256)": {
        "details": "See {IERC721-approve}."
      },
      "balanceOf(address)": {
        "details": "See {IERC721-balanceOf}."
      },
      "getApproved(uint256)": {
        "details": "See {IERC721-getApproved}."
      },
      "isApprovedForAll(address,address)": {
        "details": "See {IERC721-isApprovedForAll}."
      },
      "name()": {
        "details": "See {IERC721Metadata-name}."
      },
      "ownerOf(uint256)": {
        "details": "See {IERC721-ownerOf}."
      },
      "safeTransferFrom(address,address,uint256)": {
        "details": "See {IERC721-safeTransferFrom}."
      },
      "safeTransferFrom(address,address,uint256,bytes)": {
        "details": "See {IERC721-safeTransferFrom}."
      },
      "setApprovalForAll(address,bool)": {
        "details": "See {IERC721-setApprovalForAll}."
      },
      "supportsInterface(bytes4)": {
        "details": "See {IERC165-supportsInterface}."
      },
      "symbol()": {
        "details": "See {IERC721Metadata-symbol}."
      },
      "tokenURI(uint256)": {
        "details": "See {IERC721Metadata-tokenURI}."
      },
      "transferFrom(address,address,uint256)": {
        "details": "See {IERC721-transferFrom}."
      }
    },
    "version": 1
  },
  "userdoc": {
    "kind": "user",
    "methods": {},
    "version": 1
  }
}